:020000040800F2
:1000000040150020D98600083D1200083F12000864
:1000100043120008471200084B12000800000000BD
:100020000000000000000000000000004F12000867
:100030005112000800000000531200085512000879
:10004000F3860008F3860008F3860008F3860008AC
:10005000F3860008F3860008F3860008F38600089C
:10006000F3860008F3860008F3860008F38600088C
:10007000F3860008F3860008F3860008F38600087C
:10008000F3860008F3860008F3860008F38600086C
:10009000F3860008F3860008F3860008F38600085C
:1000A000F3860008F3860008F3860008F38600084C
:1000B000F3860008F3860008F3860008F38600083C
:1000C000F3860008F3860008F3860008F38600082C
:1000D000F38600084F860008F3860008F3860008C0
:1000E000F3860008F3860008F3860008F38600080C
:1000F000F3860008F3860008F3860008F3860008FC
:10010000F3860008F3860008F3860008F3860008EB
:10011000F3860008F3860008F3860008F3860008DB
:10012000F3860008F3860008F3860008F3860008CB
:1001300000F002F800F069F80AA090E8000C824490
:100140008344AAF10107DA4501D100F05EF8AFF26D
:10015000090EBAE80F0013F0010F18BFFB1A43F0A5
:100160000103184764C7000084C7000010F8013B72
:100170000A4413F0030408BF10F8014B1D1108BF17
:1001800010F8015B641E05D010F8016B641E01F8C5
:10019000016BF9D1002D15D010F8014B03F00C03C1
:1001A0000C2BA1EB04040ABF10F8013BA4EB831451
:1001B000A4EB032405F1010314F8016B5B1E01F8A5
:1001C000016BF9D5914238BF10F8013BD1D370478C
:1001D0000023002400250026103A28BF78C1FBD850
:1001E000520728BF30C148BF0B607047642909F02F
:1001F0007D85782909F0B685732909F0C586002028
:1002000070471FB51FBD10B510BD09F01FFF114687
:10021000FFF7F7FF00F0EAFF09F0D0FD03B4FFF7A6
:10022000F2FF03BC08F0B8F908B5002002F00DF8A1
:1002300040F2FF700123A02241210090FE4805F00A
:10024000CDFE40F2FF700123A0225F210090FA480A
:100250004C3005F0C3FE40F2FF700123A0227D2147
:100260000090F64805F0BAFE40F2FF700123A0228C
:100270009B210090F1484C3005F0B0FE40F2FF7039
:100280000123C82241210090EB48983805F0A6FED2
:1002900040F2FF700123C8225F210090E6484C38ED
:1002A00005F09CFE40F2FF700123C8227D210090E2
:1002B000E24805F093FE40F2FF700123C8229B2123
:1002C0000090DE484C3005F089FE40F2FF700123BB
:1002D000F02241210090DA4805F080FE40F2FF70E4
:1002E0000123F0225F210090D5484C3005F076FEC6
:1002F00040F2FF700123F0227D210090D048983019
:1003000005F06CFE40F2FF700123F0229B2100906B
:10031000CB48E43005F062FE4FE0322008F00FF9E0
:10032000C848416800208847C64890F8200000F07F
:10033000800000283ED0C3488089C349098888428C
:1003400038DAC048C08AC0494988884232DABD4894
:100350008089322818DDBB48C08AA02814DDB9483E
:100360008189B9480088323881420DDAB548C08A9F
:10037000C82809DAB548007818B10020B3490870D8
:1003800002E00120B1490870AE488089322811DDB1
:10039000AC48C08AF0280DDDAA488189AA480088A7
:1003A0003238814206DAA748C08AB0F58C7F01DA7C
:1003B00000F0CBFC322008F0C2F8AEE708B5002010
:1003C00001F043FF44E04FF47840012364224121CF
:1003D00000909F4805F002FE4FF47840012364220C
:1003E0005F2100909A484C3005F0F8FD4FF47840BA
:1003F000012364227D2100909548983005F0EEFDA0
:100400004FF47840012364229B2100909048E4300F
:1004100005F0E4FD322008F092F88A484168002097
:100420008847884890F8200000F0800068B185482F
:10043000808985490988884207DA8248C08A8249CA
:100440004988884201DA00F080FC322008F077F811
:10045000B9E7F0B50025002600BF67E0002662E09E
:10046000C5EB0510DFF8ECC16044825D002A59D06D
:100470002B46344601210AE05818C0EB0010DFF883
:10048000D4C16044075D974200D002E0491C0529B1
:10049000F2DB00BF052901D11046F0BD01210CE0BF
:1004A000C3EB0310DFF8ACC1604404EB010C10F89F
:1004B0000C70974200D002E0491C0529F0DB00BF18
:1004C000052901D11046E8E701210DE05818C0EBDD
:1004D0000010DFF880C1604404EB010C10F80C70D0
:1004E000974200D002E0491C0529EFDB00BF052937
:1004F00001D11046D1E701210DE0581AC0EB0010E0
:10050000DFF850C1604404EB010C10F80C70974206
:1005100000D002E0491C0529EFDB00BF052901D10D
:100520001046BAE7761C0F2E9ADB6D1C0F2D95DB5B
:100530000020B2E738B50446012C58D1002001F064
:1005400084FE4FF6FF70444908806423F022194668
:10055000002005F003FBC823F0221946002005F017
:10056000FDFA4FF4784001238C22462100903B484D
:1005700005F034FD4FF4784001238C226421009073
:1005800036484C3005F02AFD4FF4784001238C2288
:1005900082210090324805F021FD4FF4784001237C
:1005A0008C22A02100902E484C3005F017FD1DE054
:1005B000322007F0C4FF23484168002088472148C3
:1005C00090F8200000F0800068B11E4880891E4924
:1005D0000988884207DA1B48C08A1B494988884233
:1005E00001DA00F0B2FB322007F0A9FFE0E7022CAD
:1005F0006DD14FF6FF7001F028FE6423F0221946FA
:10060000002005F0ABFAC823F0221946002005F0BF
:10061000A5FA4FF4784001238C22462100900F4820
:10062000983005F0DBFC4FF4784001238C226421E4
:1006300000900A484C3015E0D009002080010020CD
:100640004C0B0020CC0C00200A0E0020790C00205E
:1006500048030020280D0020C60C0020540800206C
:100660008C06002005F0BAFC4FF4784001238C2260
:1006700082210090FE4805F0B1FC4FF47840012340
:100680008C22A0210090FA484C3005F0A7FC1DE018
:10069000322007F054FFF748416800208847F548AA
:1006A00090F8200000F0800068B1F2488089F2499B
:1006B0000988884207DAEF48C08AEF4949888842AA
:1006C00001DA00F042FB322007F039FFE0E738BDE5
:1006D0002DE9F04104460D461646C5EB0511E74AE3
:1006E00011448C55FFF7B5FEC7B23846FFF722FF1D
:1006F000012C01D1022402E0022C00D10124E048A7
:100700000278E0480178204600F036F9BDE8F08133
:100710002DE9F04105460E461446DB480788048063
:100720003146284601F0AFFAD8480088D6490880FB
:10073000BDE8F0812DE9FF4F81B006468946174696
:100740004FF000083C464FF0030AC7F10200C01BFF
:100750000090C7F1010B04EB090291B208EB06020D
:1007600090B2049AFFF7D4FF62424A4491B208EB78
:10077000060290B2049AFFF7CBFF7842851905E094
:10078000A8B24946049AFFF7C3FF6D1CB819A842E6
:10079000F6DA40E0BBF1000F05DAD3440AF1020AB1
:1007A00008F101080AE00098504483440AF1020A63
:1007B0000098801C009008F10108641EC8F1000038
:1007C00085190EE062424A4491B2A8B2049AFFF73A
:1007D0009FFF04EB090291B2A8B2049AFFF798FFB9
:1007E0006D1C08EB0600A842ECDA604285190FE0A8
:1007F000C8F100024A4491B2A8B2049AFFF788FFF8
:1008000008EB090291B2A8B2049AFFF781FF6D1CB0
:10081000A019A842ECDAA045BCDB05B0BDE8F08F1A
:100820002DE9FF5F83460E4600240025A146A2461F
:10083000232585E00F247BE00F2094FBF0F0401E81
:100840001FFA80F9A5F114000F2190FBF1F0401E72
:100850001FFA80FA142E68DD874840883C38B04281
:1008600063DD204609F036FD0022894BCDE9000109
:1008700009F0A6FF07468846584609F02BFD3A4680
:100880004346CDE9020109F073FE4ED2204609F03D
:1008900021FD00227E4BCDE9000109F023FC074633
:1008A0008846584609F016FD3A464346CDE902010E
:1008B00009F024FD39D2284609F00CFD0746002234
:1008C000734B09F07DFFCDE90201304609F002FDCE
:1008D000CDE90001DDE9022309F04AFE25D22846D0
:1008E00009F0F8FC07460022694B09F0FBFBCDE953
:1008F0000201304609F0EEFCCDE90001DDE90223FA
:1009000009F0FCFC11D2C9EB09105C49084410F84D
:100910000A0050B95F4804804580A0F80490A0F810
:1009200006A0012004B0BDE8F09F04F10F0084B2DE
:1009300051480088A0423FF77FAF05F10F0085B214
:100940004D4840883C38A8423FF774AF0020E9E7A3
:1009500070B504460D4616466EB1474802882B46D0
:100960002946002005F0FAF8434843882246002132
:10097000204605F0F3F870BD04460D46164600BF4C
:10098000F3E0322007F0DBFD3A4841680020884759
:10099000384890F8200000F0800000287ED03548CC
:1009A000808935490988884278DA3248C08A3249D4
:1009B00049888842F8DA2F488089B42820DD2D48FC
:1009C000C08AB0F58C7F1BDD2A4881892A480088BF
:1009D0000F38814214DA2748C08AB0F5967F0FDAC3
:1009E000012C03D10220FFF7A5FD04E0022C02D167
:1009F0000120FFF79FFD00F0A8F9002009F0DEF9C3
:100A00001C4AD18A9089244A1278FFF7A1FF15B1B8
:100A1000012D48D148E0174A917D107BFFF700FF78
:100A2000E8B3012C0FD11B4A5188108800230522FE
:100A3000FFF780FE4FF478430A224FF4917164204F
:100A4000FFF778FE10E0022C0ED1124A5188108870
:100A50004FF478430522FFF76DFE00230A224FF47E
:100A600091716420FFF766FE0A48C288818817E00A
:100A70008C060020CC0C00200A0E0020280D00203F
:100A80007E0C00207C0C0020C60C0020860C002070
:100A900000001E40A80C0020790C002062E002E05B
:100AA0002046FFF715FE5CE0B44230D1FE4A917D4E
:100AB000107BFFF7B5FE002852D0012C0FD1FB4A66
:100AC0005188108800230522FFF734FE4FF4784345
:100AD0000A224FF491716420FFF72CFE10E0022CE3
:100AE0000ED1F24A518810884FF478430522FFF75F
:100AF00021FE00230A224FF491716420FFF71AFEB1
:100B0000EA48C28881882046FFF7E2FD28E0012CF0
:100B10000FD1E64A5188108800230522FFF70AFE0C
:100B20004FF478430A224FF491716420FFF702FEDC
:100B300010E0022C0ED1DD4A518810884FF4784322
:100B40000522FFF7F7FD00230A224FF4917164207C
:100B5000FFF7F0FDD548C28881882046FFF7B8FD31
:100B600000BF00BF322007F0EAFC0AE708B50F20FB
:100B7000CF4908601420CF49086011E0CE490988A8
:100B800014318BB2CA4909888AB2C949098888B226
:100B9000142104F0E3FFC64800680F30C449086020
:100BA000C5480088C24909688842E7DC0FE0C148AF
:100BB000008883B2C0480288BE48008881B2002005
:100BC00004F0CCFFBB4800680F30BA490860BA484F
:100BD00000881E30B74909688842E8DC4FF6FF708C
:100BE00001234FF48C7214210090B44805F0F6F9FB
:100BF0004FF6FF7001234FF48C7228210090AF480C
:100C00004C3005F0EBF94FF6FF7001234FF48C7276
:100C10003C210090A948983005F0E0F900230A2211
:100C20004FF491716420FFF785FD4FF6FF700123AB
:100C30004FF48C72B4210090A14805F0CFF94FF623
:100C4000FF7001234FF48C72C82100909C484C30F7
:100C500005F0C4F908BD01209A4908704FF6FF70ED
:100C600001F0F3FA4FE0322007F069FC8E4841684A
:100C7000002088478C4890F8200000F08000002871
:100C80003ED0894880898C490988884238DA86486C
:100C9000C08A89494988884232DA83488089322863
:100CA00014DD8148C08AA02810DD7F4881898248F0
:100CB00000883238814209DA7B48C08AC82805DAC0
:100CC000012081490880814908801DE0764880899B
:100CD000322815DD7448C08AC82811DD7248818920
:100CE00075480088323881420ADA6F48C08AF02895
:100CF00006DA01207549088002207349088003E064
:100D0000322007F01CFCAEE700BFFFF72FFF6E4854
:100D100002786C4801786D480088FFF72DFE0020AE
:100D200068490870012068490880684908804FF6C2
:100D3000FF7001F08AFAFFF719FF634802786148F3
:100D4000017862480088FFF717FE08B500BF4FF62C
:100D5000FF7001F07AFA01205D49087000205B49BC
:100D60000880FF20574908704FF6FF7059490880E6
:100D700059490880E121594809F029F84FF4784091
:100D800002231E2232210090554805F027F94FF426
:100D9000784002231E226421009051484C3005F017
:100DA0001DF94FF4784002231E22962100904C48F2
:100DB000983005F013F940F2FF70012378224121A9
:100DC00000904748E43005F009F940F2FF70012334
:100DD00078225F210090434805F000F940F2FF704F
:100DE000012378227D2100903E484C3005F0F6F832
:100DF00040F2FF70012378229B21009039489830FF
:100E000005F0ECF840F2FF700123A0224121009090
:100E10003448E43005F0E2F840F2FF700123A022EC
:100E20005F210090304805F0D9F840F2FF700123AF
:100E3000A0227D2100902C484C3005F0CFF840F2E4
:100E4000FF700123A0229B2100902748983005F0D5
:100E5000C5F840F2FF700123C822412100902248CA
:100E6000E43005F0BBF840F2FF700123C8225F2197
:100E700000901E4805F0B2F840F2FF700123C8222E
:100E80007D21009019484C3005F0A8F840F2FF7021
:100E90000123C8229B2100901448983005F09EF849
:100EA00040F2FF70012323E0CC0C0020A80C0020AE
:100EB0008C0C0020900C00200A0E0020680A0020F4
:100EC000BC0700207C0C00207E0C00207A0C002047
:100ED000780C0020800C0020820C0020280D0020BF
:100EE000040000203401002064020020940300204C
:100EF000F02241210090CB4805F070F840F2FF70DD
:100F00000123F0225F210090C6484C3005F066F8BE
:100F100040F2FF700123F0227D210090C1489830FB
:100F200005F05CF840F2FF700123F0229B21009055
:100F3000BC48E43005F052F878E0BB48007800285F
:100F400074D0322007F0FBFA002000F0B5FAB74861
:100F5000416800208847B54890F8200000F08000E4
:100F6000002860D0B1488089B149098888425ADA9E
:100F7000AE48C08AAE494988884254DAAB48808975
:100F8000322810DDA948C08A78280CDDA74881895D
:100F9000A74800883238814205DAA448C08AA028D0
:100FA00001DAFFF7BCFEA1488089322810DD9F4896
:100FB000C08AA0280CDD9D4881899D480088323870
:100FC000814205DA9948C08AC82801DAFFF743FE52
:100FD00096488089322810DD9448C08AC8280CDDE4
:100FE00092488189924800883238814205DA8F48D8
:100FF000C08AF02801DAFFF7E1F98C4880893228AD
:1010000011DD8A48C08AF0280DDD8848818988482A
:1010100000883238814206DA8448C08AB0F58C7F75
:1010200001DAFFF701F9322007F089FA85E710B5F8
:101030000446012C08D14FF6FF730A224FF4967133
:101040001E20FFF777FB08E0022C06D100230A22BE
:101050004FF496711E20FFF76DFB10BD70B504466E
:101060000D4600210023211F25E0C1EB0110714E28
:101070003044405D90421DD1481CC0EB001030440C
:10108000405D904216D1881CC0EB00103044405D9A
:1010900090420FD1C81CC0EB00103044405D90421C
:1010A00008D1081DC0EB00103044405D904201D1D2
:1010B000012070BD491C201D8142D6DD2B1F28E078
:1010C000C4EB04105B4E3044C05C904220D1C4EBB2
:1010D00004100644581C305C904219D1C4EB041033
:1010E000544E0644981C305C904211D1C4EB04105D
:1010F000504E0644D81C305C904209D1C4EB041019
:101100004C4E0644181D305C904201D10120D0E7BE
:101110005B1C281D8342D3DD211F2B1F2DE0C1EB5B
:101120000110444E3044C05C904224D1481CC0EBB6
:1011300000100644581C305C90421CD1881CC0EB47
:1011400000103C4E0644981C305C904213D1C81CE1
:10115000C0EB0010374E0644D81C305C90420AD1D8
:10116000081DC0EB0010334E0644181D305C904241
:1011700001D101209DE7491C5B1C201D8142CEDD71
:10118000211F2B1D2DE0C1EB01102A4E3044C05C05
:10119000904224D1481CC0EB00100644581E305C1D
:1011A00090421CD1881CC0EB0010224E0644981EB1
:1011B000305C904213D1C81CC0EB00101D4E064499
:1011C000D81E305C90420AD1081DC0EB0010194EA9
:1011D0000644181F305C904201D1012069E7491C88
:1011E0005B1E201D8142CEDD002062E707F06AF918
:1011F0004FF4A06007F090FA01F059F805F0C9F932
:101200000A49086880474FF4E13007F0D4F900F04C
:1012100013F900F037F94FF4784007490880FFF7D9
:1012200094FD000078040020780C0020CC0C0020F5
:101230000A0E0020280D0020C60C0020704700BFB9
:10124000FEE700BFFEE700BFFEE700BFFEE7704716
:1012500070477047704700000CB500200190009067
:101260006C48006840F480306A49086000BF6948F3
:10127000006800F4003000900198401C0190009834
:1012800018B90198B0F5A06FF1D16248006800F478
:10129000003010B10120009001E000200090009883
:1012A000012843D15C48006840F010005A490860AA
:1012B0000846006820F0030008600846006840F017
:1012C0000200086053484068524948600846406838
:1012D00048600846406840F48060486008464068BE
:1012E00020F47C1048600846406840F4E8104860EC
:1012F0000846006840F08070086000BF45480068FC
:1013000000F000700028F9D04248406820F0030047
:10131000404948600846406840F00200486000BF0D
:101320003C48406800F00C000828F9D10CBD10B50D
:10133000FFF792FF10BD10B53648006840F001007D
:1013400034490860084640683449084031494860DB
:1013500008460068324908402E490860084600687F
:1013600020F4802008600846406820F4FE004860B1
:101370004FF41F008860FFF7DAFF4FF00060294943
:10138000086010BD10B5002100200022214B5B68D1
:1013900003F00C0121B1042906D0082928D107E067
:1013A000214B224C236027E01F4B204C236023E07D
:1013B000184B5B6803F47010164B5B6803F48032C3
:1013C000022303EB904022B9194B4343174C23608F
:1013D0000DE0104B5B6803F4003323B1144B43431F
:1013E000124C236003E0104B4343104C236003E096
:1013F0000D4B0E4C236000BF00BF064B5B68C3F370
:1014000003130C4CE15C094B1B68CB40074C236079
:1014100010BD000000100240002002400000FFF854
:10142000FFFFF6FE08ED00E000127A00B00C00208D
:1014300000093D00B40C002008B50121482007F048
:10144000FBFF2020ADF8000010208DF803000320E2
:101450008DF802006946094807F032FD202107484F
:1014600007F0DBFD2020ADF800006946044807F0D6
:1014700027FD2021024807F0D0FD08BD000C0140E7
:101480000018014008B50121442007F0D5FF1820BD
:10149000ADF8000048208DF8030069462C4807F09D
:1014A0000FFD0120ADF8000028208DF803006946EB
:1014B000284807F005FD08BD10B5044614B1012009
:1014C000254908702448007858B31021204807F0B7
:1014D0008AFD50B108211E4807F085FD28B1012181
:1014E0001C4807F080FD01281BD10A2007F027F8CF
:1014F0000020194908701021154807F074FD08B93B
:10150000012010BD0821124807F06DFD08B9022026
:10151000F7E701210F4807F066FD012815D10320E8
:10152000EFE710210A4807F05EFD01280DD10821E0
:10153000074807F058FD012807D10121054807F0A9
:1015400052FD10B90120044908700020D9E70000BD
:101550000018014000080140C40C0020F749088031
:101560007047F649891C0880704708B5F348801C0D
:1015700000880090BDF8000008BDF04A1080921C61
:101580001180704710B504462046FFF7E7FF05209D
:1015900006F0B1FFFFF7E9FF10BDE9480089E74910
:1015A00008807047E549891C0880704730B50146BE
:1015B00001F01F04C1F34513CA0AE50205EB431508
:1015C0001544A8B230BD00BF011EA0F10102D0B287
:1015D000FAD1704710B503460C46D948808849F2C5
:1015E0004131884205D0D648808845F21031884282
:1015F00014D1D3494889FFF7B1FF1812FFF7B1FFA3
:10160000D8B2FFF7AEFFCE498889FFF7A7FF2012B7
:10161000FFF7A7FFE0B2FFF7A4FFABE0C848808860
:1016200046F6040188421DD1C5488079012804D1BD
:10163000C3480088401EC01A83B2C1494889FFF7D9
:101640008DFF1812FFF78DFFD8B2FFF78AFFBC4954
:101650008889FFF783FF2012FFF783FFE0B2FFF7CF
:1016600080FF87E0B648808841F66311884247D101
:10167000B3488079A8B9B2480088401EC01A83B226
:10168000AF494889FFF76AFF0020FFF76AFF002093
:10169000FFF767FF1812FFF764FFD8B2FFF761FF8B
:1016A00016E0A7494889FFF759FF1812FFF759FFBD
:1016B000D8B2FFF756FFA2490988491EC1F30F208F
:1016C000FFF74FFF9E490978491EC8B2FFF749FF4F
:1016D0009B498889FFF742FF2012FFF742FFE0B2E3
:1016E000FFF73FFF96494988491EC1F30F20FFF7D6
:1016F00038FF93498978491EC8B2FFF732FF39E0B5
:101700008F48808845F21051884220D18C49488901
:10171000FFF724FF1812FFF724FF89494989491C64
:1017200088B2FFF71BFFD8B2FFF71BFF84498889F7
:10173000FFF714FF2012FFF714FF81498989491C24
:1017400088B2FFF70BFFE0B2FFF70BFF12E07C4817
:101750008079012804D17A480088401EC01A83B2DB
:10176000774948891946FFF708FF75498889214656
:10177000FFF703FF10BD2DE9F04105460E4600249A
:101780000027A0466E480088A84203DD6C484088C8
:10179000B04202DC0020BDE8F08131462846FFF768
:1017A00019FF6748808849F24131884211D0644866
:1017B000808846F6040188420BD06148808845F253
:1017C0001031884205D05E48808841F66311884216
:1017D00003D12E20FFF7C2FE0DE05948808845F264
:1017E0001051884204D14FF43850FFF7B7FE02E0A1
:1017F0002220FFF7B3FE5248808849F22031884208
:1018000002D10220FFF7DFFEFFF7AFFE04464C488F
:10181000808841F66311884201D12046BBE702204F
:10182000FFF7D1FEFFF7A1FE04464548808849F244
:10183000413188420BD04248808845F210318842BD
:1018400005D03F48808845F2105188420AD10220D5
:10185000FFF7B9FEFFF789FE8046E7B24FF6FF704B
:1018600000EA07273648808849F22531884216D099
:101870003348808844F23551884210D030488088FF
:10188000091F88420BD02E4880884BF205518842B0
:1018900005D02B4880884CF20551884201D1204662
:1018A00079E72748808849F2413188420BD02448A3
:1018B000808845F21031884205D02148808845F261
:1018C0001051884207D1E012C002B91240EA41101B
:1018D00040EAE8205FE72046FFF768FE5BE700B5D7
:1018E0001748808849F24131884211D014488088D5
:1018F00046F6040188420BD01148808845F2103129
:10190000884205D00E48808841F66311884203D191
:101910002920FFF723FE0FE00948808845F2105187
:10192000884204D14FF42450FFF718FE04E040F23F
:1019300073110720FFF721FE00BD0000FE07006CB9
:101940000A0E002000B5FD48808849F241318842E6
:1019500011D0FA48808846F6040188420BD0F74837
:10196000808845F21031884205D0F448808841F6DD
:101970006311884203D12820FFF7F0FD0EE0EF4805
:10198000808845F21051884204D14FF42050FFF76F
:10199000E5FD03E000210720FFF7EFFD00BD70B576
:1019A000044600230026E548807901280BD1E3484E
:1019B000808846F60401884205D0E048808841F6D8
:1019C0006311884208D1DD488079F0B9DB4880880E
:1019D00041F66311884218D1082C15D2DFE804F0D3
:1019E0000406080A0C0E101206240DE007240BE072
:1019F000042409E0052407E0012405E0002403E0B5
:101A0000032401E0022400BF00BFCC48808849F2D3
:101A10004131884217D0C948808846F6040188427F
:101A200011D0C648808845F2103188420BD0C34897
:101A3000808845F21051884205D0C048808841F620
:101A4000631188427ED1082C1CD2DFE804F0040622
:101A5000090C0F12151800BF14E043F0800311E0C9
:101A600043F040030EE043F0C0030BE043F02003DB
:101A700008E043F0600305E043F0A00302E043F018
:101A8000E00300BF00BFAD48808845F21051884296
:101A900002D14FF4585600E03626A848808845F217
:101AA000103188420DD0A548808845F210518842F7
:101AB00007D0A248808841F66311884201D043F0E4
:101AC00008039E48808846F60401884201D143F00D
:101AD000020319463046FFF750FD9848808841F6CA
:101AE000631188421DD003F0200068B1934800883C
:101AF00092494988884214DA9048058840888F497D
:101B00000880084645800CE08C4800888B4949884D
:101B1000884206DD8948058840888849088008464B
:101B200045808648808845F21051884254D18349C7
:101B30004889FFF713FD0020FFF713FD7F4949890E
:101B4000491C00E077E088B2FFF708FD0020FFF7AE
:101B500008FD7A494989891C88B2FFF7FFFC77495B
:101B60000988491EC1F30F20FFF7FBFC734949891F
:101B7000C91C88B2FFF7F2FC70490978491EC8B247
:101B8000FFF7EFFC6D498889FFF7E8FC0020FFF7BD
:101B9000E8FC6A498989491C88B2FFF7DFFC00200C
:101BA000FFF7DFFC65498989891C88B2FFF7D6FCFD
:101BB00062494988491EC1F30F20FFF7D2FC5F49F3
:101BC0008989C91C88B2FFF7C9FC5C498978491E1C
:101BD000C8B2FFF7C6FC55E058494889FFF7BEFC7C
:101BE0000020FFF7BEFC0020FFF7BBFC534909882B
:101BF000491EC1F30F20FFF7B4FC50490978491E74
:101C0000C8B2FFF7AEFC4D498889FFF7A7FC00205A
:101C1000FFF7A7FC0020FFF7A4FC48494988491EAC
:101C2000C1F30F20FFF79DFC44498978491EC8B2D3
:101C3000FFF797FC26E0082C1CD2DFE804F004072D
:101C40000A0D0F12151843F0300313E043F0100390
:101C500010E043F020030DE000BF0BE043F0380339
:101C600008E043F0280305E043F0180302E043F0E6
:101C7000080300BF00BF032643F4805319463046D3
:101C8000FFF77BFC70BD30B504460D462946204663
:101C9000FFF7A0FCFFF781FC29480088294908804C
:101CA00030BD30B503460C4615462448808849F2BD
:101CB0004131884205D02148808845F21031884260
:101CC00014D11E494889FFF749FC1812FFF749FC57
:101CD000D8B2FFF746FC19498889FFF73FFC20126C
:101CE000FFF73FFCE0B2FFF73CFC93E0134880882D
:101CF00045F21051884227D110494889FFF72EFC40
:101D00001812FFF72EFC0D494989491C88B2FFF7CC
:101D100025FCD8B2FFF725FC08498889FFF71EFC8F
:101D20002012FFF71EFC05498989491C88B2FFF77C
:101D300015FCE0B2FFF715FC6CE000000A0E002075
:101D4000C60C00200008006CFC48808841F6631136
:101D5000884228D1F948807920B9F8480088401E87
:101D6000C01A83B2F5494889FFF7F8FB1812FFF74C
:101D7000F8FBD8B2FFF7F5FB1812FFF7F2FBD8B269
:101D8000FFF7EFFBED498889FFF7E8FB2012FFF72B
:101D9000E8FBE0B2FFF7E5FB2012FFF7E2FBE0B261
:101DA000FFF7DFFB36E0E548808846F6040188420D
:101DB0001DD1E2488079012804D1E0480088401E06
:101DC000C01A83B2DD494889FFF7C8FB1812FFF734
:101DD000C8FBD8B2FFF7C5FBD8498889FFF7BEFB1F
:101DE0002012FFF7BEFBE0B2FFF7BBFB12E0D348C7
:101DF0008079012804D1D1480088401EC01A83B2DE
:101E0000CE4948891946FFF7B8FBCC498889214655
:101E1000FFF7B3FBC9480089C9490880881C0580C1
:101E200030BD2DE9F0470446BE20FFF797FB0520A3
:101E3000FFF797FB204608F04DFA07464FF0663251
:101E4000C04B08F097FA054608F000FA1FFA80F92F
:101E50004846FFF786FB0120FFF783FBFF20FFF7D3
:101E600080FB0020FFF77DFB0020FFF77AFBBDE839
:101E7000F08710B50446002C66D1B0498871F02077
:101E800008804FF4A07048800846808849F24131AC
:101E900088420BD0A948808846F60401884205D0C4
:101EA000A648808845F2103188421AD12C20A349D7
:101EB00008812A2048812B2088810846808846F6A0
:101EC0000401884205D09D48808845F2103188423F
:101ED00006D14FF4A070994908804FF4F070488003
:101EE000A1E09648808845F21051884210D14FF405
:101EF0003050924908814FF4285048814FF42C50BB
:101F000088814FF4F07008804FF4487048808AE070
:101F10008A48808841F6631188420DD12C20874978
:101F200008812B2048812A2088814FF4F070088096
:101F30004FF44870488076E02220804908812020B4
:101F40004881212088816EE001207C4988714FF40E
:101F5000A0700880F02048800846808849F241310E
:101F6000884205D07548808845F21031884207D1F3
:101F70002C20724908812A2048812B2088813FE04B
:101F80006E48808846F60401884207D12C206B49B0
:101F900008812B2048812A20888131E06748808889
:101FA00045F21051884210D14FF4305063490881F6
:101FB0004FF4285048814FF42C5088814FF44870DA
:101FC00008804FF4F07048801AE05C48808841F641
:101FD000631188420DD12C20584908812A2048815C
:101FE0002B2088814FF4487008804FF4F0704880AF
:101FF00006E0222051490881212048812020888143
:102000004E48808846F60401884205D04B488088B7
:1020100045F21031884206D14FF4F07047490880EC
:102020004FF4A07048800020FFF7B9FC10BD2DE9E7
:10203000F04F86B004460D469046994604EB0800E2
:10204000401E86B205EB0900401E87B23B488088DF
:1020500049F24131884215D03848808845F2103124
:1020600088420FD03548808846F60401884209D05E
:1020700032488079012826D13048808841F66311A2
:10208000884220D12D494889FFF768FA2012FFF7CE
:1020900068FAE0B2FFF765FA3012FFF762FAF0B2C1
:1020A000FFF75FFA25498889FFF758FA2812FFF7EA
:1020B00058FAE8B2FFF755FA3812FFF752FAF8B2B9
:1020C000FFF74FFABEE01D48808841F66311884251
:1020D0003AD11A480088A0EB0800001B84B205EB37
:1020E0000900401E1FFA80F914494889FFF736FAA3
:1020F0002012FFF736FAE0B2FFF733FA04EB0801DB
:10210000491EC1F30F20FFF72CFA04EB0801491E0A
:10211000C8B2FFF726FA09498889FFF71FFA281283
:10212000FFF71FFAE8B2FFF71CFA4FEA2920FFF782
:1021300018FA09F0FF00FFF714FA83E00A0E0020F6
:10214000FE07006C66660440FE48808845F2105128
:10215000884244D1FB494889FFF700FA2012FFF773
:1021600000FAF8494989491C88B2FFF7F7F9E0B24B
:10217000FFF7F7F9F3494989891C88B2FFF7EEF9AF
:102180003012FFF7EEF9EF494989C91C88B2FFF711
:10219000E5F9F0B2FFF7E5F9EA498889FFF7DEF9DA
:1021A0002812FFF7DEF9E7498989491C88B2FFF751
:1021B000D5F9E8B2FFF7D5F9E2498989891C88B2D7
:1021C000FFF7CCF93812FFF7CCF9DE498989C91C31
:1021D00088B2FFF7C3F9F8B2FFF7C3F932E0D94884
:1021E000807901280ED1AA46BB46D6480088801BBC
:1021F000401E80B20190D3480088001B401E80B270
:10220000009003E0A246B346019500975020059048
:10221000512004905220039053200290514605987B
:10222000FFF7ABF959460498FFF7A7F9019903980E
:10223000FFF7A3F900990298FFF79FF92946204676
:10224000FFF7C8F906B0BDE8F08F70B50446002668
:10225000BC48058840884543BA48808846F6040152
:10226000884216D1B7488079012812D10020B5499B
:1022700088712A2048812B20888100210846FFF799
:10228000A9F90120AF4988712B2048812A20888133
:1022900003E000210846FFF79DF9FFF77EF90026CD
:1022A00002E0A9480480761CAE42FAD370BD00B5A6
:1022B0009FB00121080207F0B2F801214FF4B47079
:1022C00007F0BAF83021A14806F0A7FE3020ADF89B
:1022D000780010208DF87B0002208DF87A001EA96E
:1022E0009A4806F0EDFD41F20100ADF878001820A3
:1022F0008DF87B0003208DF87A001EA9934806F024
:10230000DFFD4FF68070ADF8780018208DF87B0067
:1023100003208DF87A001EA98D4806F0D1FD4CF2FD
:102320003370ADF8780018208DF87B0003208DF80D
:102330007A001EA9874806F0C3FD012008900F20EF
:1023400009900A9000200B9010200C9011200D9005
:1023500000200E9001900F20029003200390002097
:102360000490102005901120069000200790062070
:102370000F900020109011901020129000201390C8
:1023800015901490169017904FF4805018900020DC
:1023900019904FF480401A9000201B9008A81C90C0
:1023A00001A81D900FA806F071FA0121062006F081
:1023B000D5FB322006F0C3F80020FFF7E3F86149AF
:1023C000888008468088FF280ADB084680884FF608
:1023D000FF71884204D05B488088B0F5134F7CD1F0
:1023E000D320FFF7BBF8FFF7C0F856498880FFF706
:1023F000BCF854498880FFF7B8F8524988800846ED
:1024000080884FF6FF7101EA00204E498880FFF76F
:10241000ACF84C49898808434A4988800846808836
:1024200049F24131884258D0BF20FFF797F8FFF7B3
:102430009CF844498880FFF798F842498880FFF764
:1024400094F840498880FFF790F83E498880084614
:1024500080884FF6FF7101EA00203A498880FFF733
:1024600084F8384989880843364988800846808836
:1024700046F60401884230D0D420FFF76FF8FFF70A
:1024800074F830498880FFF770F82E498880FFF78C
:102490006CF82C498880084680884FF6FF7101EA65
:1024A000002028498880FFF760F82649898808437A
:1024B000244988800846808845F21031884262D0DD
:1024C0004FF45A40FFF74AF8FFF74FF81D4988804C
:1024D0004FF45B40FFF742F800E054E0FFF745F8A7
:1024E00018498880084680884FF6FF7101EA00206D
:1024F000144988804FF45C40FFF730F8FFF735F857
:102500001049898808430F49888008468088B0F5BB
:10251000004F02D145F2105088800A48808845F269
:10252000105188422FD0A120FFF718F8FFF71DF8AF
:1025300004498880FFF719F8024988800846808896
:102540000AE000000A0E00200008006C0020014094
:1025500000180140001401404FF6FF7101EA00200D
:10256000FB498880FFF701F8F94989880843F84951
:1025700088800846808845F26171884203D141F61F
:102580006310F3498880F248808849F241318842DB
:102590007ED12021EF4806F042FD642005F0CFFFF8
:1025A0002021EC4806F039FD642005F0C8FFCF205B
:1025B000FEF7D4FF0020FEF7D4FFD920FEF7D1FFAD
:1025C0003020FEF7CEFFED20FEF7C8FF6420FEF7B7
:1025D000C8FF0320FEF7C5FF1220FEF7C2FF8120CF
:1025E000FEF7BFFFE820FEF7B9FF8520FEF7B9FF31
:1025F0001020FEF7B6FF7A20FEF7B3FFCB20FEF7E0
:10260000ADFF3920FEF7ADFF2C20FEF7AAFF00201A
:10261000FEF7A7FF3420FEF7A4FF0220FEF7A1FF7C
:10262000F720FEF79BFF2020FEF79BFFEA20FEF736
:1026300095FF0020FEF795FF0020FEF792FFC020D7
:10264000FEF78CFF1B20FEF78CFFC120FEF786FFF4
:102650001220FEF786FFC520FEF780FF0820FEF758
:1026600080FF2620FEF77DFFC720FEF777FFB7200B
:10267000FEF777FF3620FEF771FF0820FEF771FFA7
:102680003A20FEF76BFF5520FEF76BFFB12000E00C
:10269000ADE0FEF763FF0020FEF763FF1A20FEF7B0
:1026A00060FFB620FEF75AFF0A20FEF75AFFA2206D
:1026B000FEF757FFF220FEF751FF0020FEF751FF13
:1026C0002620FEF74BFF0120FEF74BFFE020FEF730
:1026D00045FF0F20FEF745FF1D20FEF742FF1A20A1
:1026E000FEF73FFF0A20FEF73CFF0D20FEF739FF03
:1026F0000720FEF736FF4920FEF733FF6620FEF77E
:1027000030FF3B20FEF72DFF0720FEF72AFF1120A8
:10271000FEF727FF0120FEF724FF0920FEF721FF27
:102720000520FEF71EFF0420FEF71BFFE120FEF749
:1027300015FF0020FEF715FF1820FEF712FF1D20E1
:10274000FEF70FFF0220FEF70CFF0F20FEF709FF38
:102750000420FEF706FF3620FEF703FF1320FEF7E6
:1027600000FF4C20FEF7FDFE0720FEF7FAFE1320C7
:10277000FEF7F7FE0F20FEF7F4FE2E20FEF7F1FE27
:102780002F20FEF7EEFE0520FEF7EBFE2B20FEF7D6
:10279000E5FE0020FEF7E5FE0020FEF7E2FE012048
:1027A000FEF7DFFE3F20FEF7DCFE2A20FEF7D6FE16
:1027B0000020FEF7D6FE0020FEF7D3FE0020FEF735
:1027C000D0FEEF20FEF7CDFE1120FEF7C7FE7820E9
:1027D00005F0B5FE2920FEF7C1FE10215D4806F088
:1027E0001CFC4FF6FF70FFF730FD03F01EB9584890
:1027F000808846F6040188427ED11120FEF7AEFEA5
:10280000142005F09CFED020FEF7A8FE0720FEF75E
:10281000A8FE4220FEF7A5FE1D20FEF7A2FED12055
:10282000FEF79CFE0020FEF79CFE1A20FEF799FEA4
:102830000920FEF796FED220FEF790FE0120FEF75B
:1028400090FE2220FEF78DFEC020FEF787FE1020AE
:10285000FEF787FE3B20FEF784FE0020FEF781FE98
:102860000220FEF77EFE1120FEF77BFEC520FEF75C
:1028700075FE0320FEF775FEC820FEF76FFE0020F0
:10288000FEF76FFE2520FEF76CFE2120FEF769FEA5
:102890000520FEF766FE0020FEF763FE0A20FEF725
:1028A00060FE6520FEF75DFE2520FEF75AFE7720CC
:1028B000FEF757FE5020FEF754FE0F20FEF751FEA4
:1028C0000020FEF74EFEF820FEF748FE0120FEF73E
:1028D00048FEFE20FEF742FE0020FEF742FE0220E8
:1028E000FEF73FFE2020FEF739FE3620FEF736FECB
:1028F0000820FEF736FE00E02EE03A20FEF72EFE1E
:102900005520FEF72EFE2B20FEF728FE0020FEF7B6
:1029100028FE0020FEF725FE0120FEF722FE3F20C4
:10292000FEF71FFE2A20FEF719FE0020FEF719FE13
:102930000020FEF716FE0120FEF713FEDF20FEF753
:1029400010FE782005F0FBFD2920FEF707FE4CE77E
:102950000A0E002000200140FE48808845F2103118
:10296000884240F07C87ED20FEF7F8FD0120FEF75D
:10297000F8FDFE20FEF7F5FDEE20FEF7EFFDDE2070
:10298000FEF7EFFD2120FEF7ECFDF120FEF7E6FD5E
:102990000120FEF7E6FDDF20FEF7E0FD1020FEF748
:1029A000E0FDC420FEF7DAFD8F20FEF7DAFDC62039
:1029B000FEF7D4FD0020FEF7D4FDE220FEF7D1FDA6
:1029C000E220FEF7CEFDE220FEF7CBFDBF20FEF7B2
:1029D000C5FDAA20FEF7C5FDB020FEF7BFFD0D2006
:1029E000FEF7BFFD0020FEF7BCFD0D20FEF7B9FD90
:1029F0000020FEF7B6FD1120FEF7B3FD0020FEF724
:102A0000B0FD1920FEF7ADFD0020FEF7AAFD212044
:102A1000FEF7A7FD0020FEF7A4FD2D20FEF7A1FD87
:102A20000020FEF79EFD3D20FEF79BFD0020FEF7F7
:102A300098FD5D20FEF795FD0020FEF792FD5D20DC
:102A4000FEF78FFD0020FEF78CFDB120FEF786FD1E
:102A50008020FEF786FD0020FEF783FD8B20FEF729
:102A600080FD0020FEF77DFD9620FEF77AFD002018
:102A7000FEF777FDB220FEF771FD0020FEF771FD35
:102A80000020FEF76EFD0220FEF76BFD0020FEF732
:102A900068FD0320FEF765FD0020FEF762FDB32010
:102AA000FEF75CFD0020FEF75CFD0020FEF759FDFF
:102AB0000020FEF756FD0020FEF753FD0020FEF734
:102AC00050FD0020FEF74DFD0020FEF74AFD0020DE
:102AD000FEF747FD0020FEF744FD0020FEF741FD14
:102AE0000020FEF73EFD0020FEF73BFD0020FEF734
:102AF00038FD0020FEF735FD0020FEF732FD0020F6
:102B0000FEF72FFD0020FEF72CFD0020FEF729FD2B
:102B10000020FEF726FD0020FEF723FD0020FEF733
:102B200020FD0020FEF71DFD0020FEF71AFD00200D
:102B3000FEF717FDB420FEF711FD8B20FEF711FD07
:102B40000020FEF70EFD9620FEF70BFD0020FEF79D
:102B500008FDA120FEF705FD0020FEF702FDB520CF
:102B6000FEF7FCFC0220FEF7FCFC0020FEF7F9FC5F
:102B70000320FEF7F6FC0020FEF7F3FC0420FEF72E
:102B8000F0FC0020FEF7EDFCB620FEF7E7FC00208D
:102B9000FEF7E7FC0020FEF7E4FCB720FEF7DEFCC2
:102BA0000020FEF7DEFC0020FEF7DBFC3F20FEF7F6
:102BB000D8FC0020FEF7D5FC5E20FEF7D2FC0020FA
:102BC000FEF7CFFC6420FEF7CCFC0020FEF7C9FC2A
:102BD0008C20FEF7C6FC0020FEF7C3FCAC20FEF7FD
:102BE000C0FC0020FEF7BDFCDC20FEF7BAFC002094
:102BF000FEF7B7FC7020FEF7B4FC0020FEF7B1FC36
:102C00009020FEF7AEFC0020FEF7ABFCEB20FEF7B9
:102C1000A8FC0020FEF7A5FCDC20FEF7A2FC0020AB
:102C2000FEF79FFCB820FEF799FC0020FEF799FC08
:102C30000020FEF796FC0020FEF793FC0020FEF734
:102C400090FC0020FEF78DFC0020FEF78AFC00209F
:102C5000FEF787FC0020FEF784FCBA20FEF77EFC1E
:102C60002420FEF77EFC0020FEF77BFC0020FEF710
:102C700078FC0020FEF775FCC120FEF76FFC2020D9
:102C8000FEF76FFC0020FEF76CFC5420FEF769FC99
:102C90000020FEF766FCFF20FEF763FC0020FEF735
:102CA00060FCC220FEF75AFC0A20FEF75AFC002006
:102CB000FEF757FC0420FEF754FC0020FEF751FC01
:102CC000C320FEF74BFC3C20FEF74BFC0020FEF738
:102CD00048FC3A20FEF745FC0020FEF742FC392074
:102CE000FEF73FFC0020FEF73CFC3720FEF739FCE6
:102CF0000020FEF736FC3C20FEF733FC0020FEF7F8
:102D000030FC3620FEF72DFC0020FEF72AFC322096
:102D1000FEF727FC0020FEF724FC2F20FEF721FC05
:102D20000020FEF71EFC2C20FEF71BFC0020FEF707
:102D300018FC2920FEF715FC0020FEF712FC2620C7
:102D4000FEF70FFC0020FEF70CFC2420FEF709FC28
:102D5000002001E00A0E0020FEF703FC2420FEF70D
:102D600000FC0020FEF7FDFB2320FEF7FAFB00200D
:102D7000FEF7F7FB3C20FEF7F4FB0020FEF7F1FB2B
:102D80003620FEF7EEFB0020FEF7EBFB3220FEF7CD
:102D9000E8FB0020FEF7E5FB2F20FEF7E2FB00201A
:102DA000FEF7DFFB2C20FEF7DCFB0020FEF7D9FB53
:102DB0002920FEF7D6FB0020FEF7D3FB2620FEF7E6
:102DC000D0FB0020FEF7CDFB2420FEF7CAFB00203D
:102DD000FEF7C7FB2420FEF7C4FB0020FEF7C1FB73
:102DE0002320FEF7BEFB0020FEF7BBFBC420FEF74E
:102DF000B5FB6220FEF7B5FB0020FEF7B2FB052015
:102E0000FEF7AFFB0020FEF7ACFB8420FEF7A9FB2A
:102E10000020FEF7A6FBF020FEF7A3FB0020FEF744
:102E2000A0FB1820FEF79DFB0020FEF79AFBA420D4
:102E3000FEF797FB0020FEF794FB1820FEF791FBAE
:102E40000020FEF78EFB5020FEF78BFB0020FEF7E4
:102E500088FB0C20FEF785FB0020FEF782FB172085
:102E6000FEF77FFB0020FEF77CFB9520FEF779FB49
:102E70000020FEF776FBF320FEF773FB0020FEF741
:102E800070FBE620FEF76DFB0020FEF76AFBC52015
:102E9000FEF764FB3220FEF764FB0020FEF761FBC7
:102EA0004420FEF75EFB0020FEF75BFB6520FEF78B
:102EB00058FB0020FEF755FB7620FEF752FB002062
:102EC000FEF74FFB8820FEF74CFB0020FEF749FB86
:102ED000C620FEF743FB2020FEF743FB0020FEF751
:102EE00040FB1720FEF73DFB0020FEF73AFB0120D8
:102EF000FEF737FB0020FEF734FBC720FEF72EFB62
:102F00000020FEF72EFB0020FEF72BFB0020FEF733
:102F100028FB0020FEF725FBC820FEF71FFB002042
:102F2000FEF71FFB0020FEF71CFB0020FEF719FB3D
:102F30000020FEF716FBC920FEF710FB0020FEF76D
:102F400010FB0020FEF70DFB0020FEF70AFB00201F
:102F5000FEF707FB0020FEF704FB0020FEF701FB55
:102F60000020FEF7FEFA0020FEF7FBFA0020FEF735
:102F7000F8FA0020FEF7F5FA0020FEF7F2FA00203A
:102F8000FEF7EFFA0020FEF7ECFA0020FEF7E9FA70
:102F90000020FEF7E6FA0020FEF7E3FAE020FEF755
:102FA000DDFA1620FEF7DDFA0020FEF7DAFA1C2023
:102FB000FEF7D7FA0020FEF7D4FA2120FEF7D1FA67
:102FC0000020FEF7CEFA3620FEF7CBFA0020FEF7FF
:102FD000C8FA4620FEF7C5FA0020FEF7C2FA5220D2
:102FE000FEF7BFFA0020FEF7BCFA6420FEF7B9FA3C
:102FF0000020FEF7B6FA7A20FEF7B3FA0020FEF7BB
:10300000B0FA8B20FEF7ADFA0020FEF7AAFA99205D
:10301000FEF7A7FA0020FEF7A4FAA820FEF7A1FA0F
:103020000020FEF79EFAB920FEF79BFA0020FEF77B
:1030300098FAC420FEF795FA0020FEF792FACA200B
:10304000FEF78FFA0020FEF78CFAD220FEF789FAFD
:103050000020FEF786FAD920FEF783FA0020FEF75B
:1030600080FAE020FEF77DFA0020FEF77AFAF320DE
:10307000FEF777FA0020FEF774FAE120FEF76EFA09
:103080001620FEF76EFA0020FEF76BFA1C20FEF702
:1030900068FA0020FEF765FA2220FEF762FA0020A7
:1030A000FEF75FFA3620FEF75CFA0020FEF759FAC9
:1030B0004520FEF756FA0020FEF753FA5220FEF79D
:1030C00050FA0020FEF74DFA6420FEF74AFA00207D
:1030D000FEF747FA7A20FEF744FA0020FEF741FA9D
:1030E0008B20FEF73EFA0020FEF73BFA9920FEF710
:1030F00038FA0020FEF735FAA820FEF732FA002051
:10310000FEF72FFAB920FEF72CFA0020FEF729FA75
:10311000C420FEF726FA0020FEF723FACA20FEF7A5
:1031200020FA0020FEF71DFAD220FEF71AFA00203E
:10313000FEF717FAD820FEF714FA0020FEF711FA6E
:10314000E020FEF70EFA0020FEF70BFAF320FEF760
:1031500008FA0020FEF705FAE220FEF7FFF9052045
:10316000FEF7FFF90020FEF7FCF90B20FEF7F9F956
:103170000020FEF7F6F91B20FEF7F3F90020FEF71A
:10318000F0F93420FEF7EDF90020FEF7EAF94420CB
:10319000FEF7E7F90020FEF7E4F94F20FEF7E1F92A
:1031A0000020FEF7DEF96120FEF7DBF90020FEF7D4
:1031B000D8F97920FEF7D5F90020FEF7D2F988205A
:1031C000FEF7CFF90020FEF7CCF99720FEF7C9F9FA
:1031D0000020FEF7C6F9A620FEF7C3F90020FEF78F
:1031E000C0F9B720FEF7BDF90020FEF7BAF9C220FA
:1031F000FEF7B7F90020FEF7B4F9C720FEF7B1F9E2
:103200000020FEF7AEF9D120FEF7ABF90020FEF763
:10321000A8F9D620FEF7A5F90020FEF7A2F9DD20D7
:10322000FEF79FF90020FEF79CF9F320FEF799F9CD
:103230000020FEF796F9E320FEF790F90520FEF74F
:1032400090F90020FEF78DF90A20FEF78AF9002098
:10325000FEF787F91C20FEF784F90020FEF781F9BC
:103260003320FEF77EF90020FEF77BF94420FEF7BD
:1032700078F90020FEF775F95020FEF772F900206A
:10328000FEF76FF96220FEF76CF90020FEF769F98E
:103290007820FEF766F90020FEF763F98820FEF734
:1032A00060F90020FEF75DF99720FEF75AF900203B
:1032B000FEF757F9A620FEF754F90020FEF751F962
:1032C000B720FEF74EF90020FEF74BF9C220FEF7BB
:1032D00048F90020FEF745F9C720FEF742F9002023
:1032E000FEF73FF9D120FEF73CF90020FEF739F94F
:1032F000D520FEF736F90020FEF733F9DD20FEF782
:1033000030F90020FEF72DF9F320FEF72AF900200E
:10331000FEF727F9E420FEF721F90120FEF721F955
:103320000020FEF71EF90120FEF71BF90020FEF732
:1033300018F90220FEF715F90020FEF712F92A20ED
:10334000FEF70FF90020FEF70CF93C20FEF709F913
:103350000020FEF706F94B20FEF703F90020FEF7E8
:1033600000F95D20FEF7FDF80020FEF7FAF8742062
:10337000FEF7F7F80020FEF7F4F88420FEF7F1F8E6
:103380000020FEF7EEF89320FEF7EBF80020FEF7A2
:10339000E8F8A220FEF7E5F80020FEF7E2F8B320F7
:1033A000FEF7DFF80020FEF7DCF8BE20FEF7D9F8C4
:1033B0000020FEF7D6F8C420FEF7D3F80020FEF771
:1033C000D0F8CD20FEF7CDF80020FEF7CAF8D320C4
:1033D000FEF7C7F80020FEF7C4F8DD20FEF7C1F8BD
:1033E0000020FEF7BEF8F320FEF7BBF80020FEF742
:1033F000B8F8E520FEF7B2F80020FEF7B2F800209A
:10340000FEF7AFF80020FEF7ACF80020FEF7A9F8B1
:103410000220FEF7A6F80020FEF7A3F82920FEF709
:10342000A0F80020FEF79DF83C20FEF79AF8002057
:10343000FEF797F84B20FEF794F80020FEF791F87E
:103440005D20FEF78EF80020FEF78BF87420FEF763
:1034500088F80020FEF785F88420FEF782F8002027
:10346000FEF77FF89320FEF77CF80020FEF779F84E
:10347000A220FEF776F80020FEF773F8B320FEF7DF
:1034800070F80020FEF76DF8BE20FEF76AF8002005
:10349000FEF767F8C420FEF764F80020FEF761F835
:1034A000CD20FEF75EF80020FEF75BF8D320FEF794
:1034B00058F80020FEF755F8DC20FEF752F80020FF
:1034C000FEF74FF8F320FEF74CF80020FEF749F81E
:1034D000E620FEF743F81120FEF743F80020FEF740
:1034E00040F83420FEF73DF80020FEF73AF8562069
:1034F000FEF737F80020FEF734F87620FEF731F8B3
:103500000020FEF72EF87720FEF72BF80020FEF7BC
:1035100028F86620FEF725F80020FEF722F888201C
:10352000FEF71FF80020FEF71CF89920FEF719F8A7
:103530000020FEF716F8BB20FEF713F80020FEF778
:1035400010F89920FEF70DF80020FEF70AF8662023
:10355000FEF707F80020FEF704F85520FEF701F803
:103560000020FDF7FEFF5520FDF7FBFF0020FDF7D3
:10357000F8FF4520FDF7F5FF0020FDF7F2FF43209F
:10358000FDF7EFFF0020FDF7ECFF4420FDF7E9FF1A
:103590000020FDF7E6FFE720FDF7E0FF3220FDF712
:1035A000E0FF0020FDF7DDFF5520FDF7DAFF0020EA
:1035B000FDF7D7FF7620FDF7D4FF0020FDF7D1FF00
:1035C0006620FDF7CEFF0020FDF7CBFF6720FDF75B
:1035D000C8FF0020FDF7C5FF6720FDF7C2FF0020F0
:1035E000FDF7BFFF8720FDF7BCFF0020FDF7B9FF07
:1035F0009920FDF7B6FF0020FDF7B3FFBB20FDF7D4
:10360000B0FF0020FDF7ADFF9920FDF7AAFF0020D5
:10361000FDF7A7FF7720FDF7A4FF0020FDF7A1FF2E
:103620004420FDF79EFF0020FDF79BFF5620FDF78D
:1036300098FF0020FDF795FF2320FDF792FF002063
:10364000FDF78FFF3320FDF78CFF0020FDF789FF8A
:103650004520FDF786FF0020FDF783FFE820FDF7FA
:103660007DFF0020FDF77DFF0020FDF77AFF992008
:10367000FDF777FF0020FDF774FF8720FDF771FF4E
:103680000020FDF76EFF8820FDF76BFF0020FDF79F
:1036900068FF7720FDF765FF0020FDF762FF6620D9
:1036A000FDF75FFF0020FDF75CFF8820FDF759FF65
:1036B0000020FDF756FFAA20FDF753FF0020FDF77D
:1036C00050FFBB20FDF74DFF0020FDF74AFF99207A
:1036D000FDF747FF0020FDF744FF6620FDF741FF9F
:1036E0000020FDF73EFF5520FDF73BFF0020FDF7D2
:1036F00038FF5520FDF735FF0020FDF732FF44204D
:10370000FDF72FFF0020FDF72CFF4420FDF729FFD8
:103710000020FDF726FF5520FDF723FF0020FDF7D1
:1037200020FFE920FDF71AFFAA20FDF71AFF00206D
:10373000FDF717FF0020FDF714FF0020FDF711FF34
:103740000020FDF70BFFAA20FDF70BFFCF20FDF7B0
:1037500005FF0020FDF705FF0020FDF702FF002018
:10376000FDF7FFFE0020FDF7FCFE0020FDF7F9FE4F
:103770000020FDF7F6FE0020FDF7F3FE0020FDF728
:10378000F0FE0020FDF7EDFE0020FDF7EAFE002030
:10379000FDF7E7FE0020FDF7E4FE0020FDF7E1FE67
:1037A0000020FDF7DEFE0020FDF7DBFE0020FDF728
:1037B000D8FE0020FDF7D5FEF020FDF7CFFE00205B
:1037C000FDF7CFFE5020FDF7CCFE0020FDF7C9FE2F
:1037D0000020FDF7C6FE0020FDF7C3FEF320FDF735
:1037E000BDFE0020FDF7BDFEF920FDF7B7FE062067
:1037F000FDF7B7FE1020FDF7B4FE2920FDF7B1FE5E
:103800000020FDF7AEFE3A20FDF7A8FE5520FDF79B
:10381000A8FE1120FDF7A2FE642004F090FE2920EE
:10382000FDF79CFE3520FDF799FE0020FDF799FE7F
:103830005120FDF793FEFF20FDF793FE5320FDF787
:103840008DFE2C20FDF78DFE5520FDF787FE822092
:10385000FDF787FE2C20FDF781FE02F0E6B8FE485A
:10386000808845F2105188427ED155214FF4704036
:10387000FDF783FEAA214FF20100FDF77EFE5221E3
:103880004FF20200FDF779FE08214FF20300FDF729
:1038900074FE01214FF20400FDF76FFE0D214FF47D
:1038A0003040FDF76AFE0D214BF20100FDF765FE89
:1038B0000D214BF20200FDF760FE34214FF436403B
:1038C000FDF75BFE34214BF20160FDF756FE34211B
:1038D0004BF20260FDF751FE0D214FF43140FDF730
:1038E0004CFE0D214BF20110FDF747FE0D214BF26E
:1038F0000210FDF742FE34214FF43740FDF73DFE44
:1039000034214BF20170FDF738FE34214BF2027086
:10391000FDF733FE00214FF43240FDF72EFE00216B
:103920004BF20120FDF729FE00214BF20220FDF7AA
:1039300024FE24214FF43840FDF71FFE24214BF6CE
:103940000100FDF71AFE24214BF60200FDF715FEDB
:1039500001214FF43F40FDF710FE0F214FF433409B
:10396000FDF70BFE0F2100E0FEE34BF20130FDF707
:1039700004FE0F214BF20230FDF7FFFD34214FF41E
:103980003940FDF7FAFD34214BF60110FDF7F5FD46
:1039900034214BF60210FDF7F0FD08214FF43540BD
:1039A000FDF7EBFD08214BF20150FDF7E6FD082184
:1039B0004BF20250FDF7E1FD03214FF44240FDF7C9
:1039C000DCFD24214FF43A40FDF7D7FD24214BF6CE
:1039D0000120FDF7D2FD24214BF60220FDF7CDFD9D
:1039E00000214FF43C40FDF7C8FD78214BF6014023
:1039F000FDF7C3FD00214BF60240FDF7BEFD00219F
:103A00004FF43D40FDF7B9FD78214BF60150FDF72D
:103A1000B4FD00214BF60250FDF7AFFD00214FF43D
:103A20003E40FDF7AAFD64214BF60160FDF7A5FDC0
:103A300000214FF45140FDF7A0FD33214DF201105C
:103A4000FDF79BFD00214DF20210FDF796FD34219C
:103A50004DF20310FDF791FD00214DF20410FDF72A
:103A60008CFD3A214DF20510FDF787FD00214DF246
:103A70000610FDF782FD4A214DF20710FDF77DFD8E
:103A800000214DF20810FDF778FD5C214DF2091080
:103A9000FDF773FD00214DF20A10FDF76EFD812147
:103AA0004DF20B10FDF769FD00214DF20C10FDF7F2
:103AB00064FDA6214DF20D10FDF75FFD00214DF2D2
:103AC0000E10FDF75AFDE5214DF20F10FDF755FDE3
:103AD00001214DF21010FDF750FD13214DF2111090
:103AE000FDF74BFD01214DF21210FDF746FD54216B
:103AF0004DF21310FDF741FD01214DF21410FDF7B9
:103B00003CFD82214DF21510FDF737FD01214DF2EC
:103B10001610FDF732FDCA214DF21710FDF72DFDED
:103B200002214DF21810FDF728FD00214DF2191069
:103B3000FDF723FD02214DF21A10FDF71EFD0121B4
:103B40004DF21B10FDF719FD02214DF21C10FDF77F
:103B500014FD34214DF21D10FDF70FFD02214DF231
:103B60001E10FDF70AFD67214DF21F10FDF705FD40
:103B700002214DF22010FDF700FD84214DF22110AD
:103B8000FDF7FBFC02214DF22210FDF7F6FCA4210B
:103B90004DF22310FDF7F1FC02214DF22410FDF748
:103BA000ECFCB7214DF22510FDF7E7FC02214DF2A8
:103BB0002610FDF7E2FCCF214DF22710FDF7DDFCCA
:103BC00002214DF22810FDF7D8FCDE214DF229101C
:103BD000FDF7D3FC02214DF22A10FDF7CEFCF221B5
:103BE0004DF22B10FDF7C9FC02214DF22C10FDF710
:103BF000C4FCFE214DF22D10FDF7BFFC03214DF258
:103C00002E10FDF7BAFC10214DF22F10FDF7B5FC78
:103C100003214DF23010FDF7B0FC33214DF231108D
:103C2000FDF7ABFC03214DF23210FDF7A6FC6D2130
:103C30004DF23310FDF7A1FC00214FF45240FDF787
:103C40009CFC33214DF20120FDF797FC00214DF241
:103C50000220FDF792FC01E00A0E002034214DF213
:103C60000320FDF78AFC00214DF20420FDF785FCBE
:103C70003A214DF20520FDF780FC00214DF206208F
:103C8000FDF77BFC4A214DF20720FDF776FC002171
:103C90004DF20820FDF771FC5C214DF20920FDF783
:103CA0006CFC00214DF20A20FDF767FC81214DF2EA
:103CB0000B20FDF762FC00214DF20C20FDF75DFCAE
:103CC000A6214DF20D20FDF758FC00214DF20E20EB
:103CD000FDF753FCE5214DF20F20FDF74EFC0121CD
:103CE0004DF21020FDF749FC13214DF21120FDF794
:103CF00044FC01214DF21220FDF73FFC54214DF20E
:103D00001320FDF73AFC01214DF21420FDF735FC9C
:103D100082214DF21520FDF730FC01214DF21620D5
:103D2000FDF72BFCCA214DF21720FDF726FC0221DE
:103D30004DF21820FDF721FC00214DF21920FDF76E
:103D40001CFC02214DF21A20FDF717FC01214DF257
:103D50001B20FDF712FC02214DF21C20FDF70DFC8B
:103D600034214DF21D20FDF708FC02214DF21E20EA
:103D7000FDF703FC67214DF21F20FDF7FEFB02213A
:103D80004DF22020FDF7F9FB84214DF22120FDF7B3
:103D9000F4FB02214DF22220FDF7EFFBA4214DF2AE
:103DA0002320FDF7EAFB02214DF22420FDF7E5FB7D
:103DB000B7214DF22520FDF7E0FB02214DF2262030
:103DC000FDF7DBFBCF214DF22720FDF7D6FB0221CB
:103DD0004DF22820FDF7D1FBDE214DF22920FDF721
:103DE000CCFB02214DF22A20FDF7C7FBF2214DF258
:103DF0002B20FDF7C2FB02214DF22C20FDF7BDFB6D
:103E0000FE214DF22D20FDF7B8FB03214DF22E20AF
:103E1000FDF7B3FB10214DF22F20FDF7AEFB032180
:103E20004DF23020FDF7A9FB33214DF23120FDF793
:103E3000A4FB03214DF23220FDF79FFB6D214DF2D3
:103E40003320FDF79AFB00214FF45340FDF795FB1B
:103E500033214DF20130FDF790FB00214DF202308D
:103E6000FDF78BFB34214DF20330FDF786FB00217B
:103E70004DF20430FDF781FB3A214DF20530FDF79C
:103E80007CFB00214DF20630FDF777FB4A214DF215
:103E90000730FDF772FB00214DF20830FDF76DFB96
:103EA0005C214DF20930FDF768FB00214DF20A302C
:103EB000FDF763FB81214DF20B30FDF75EFB002126
:103EC0004DF20C30FDF759FBA6214DF20D30FDF7F8
:103ED00054FB00214DF20E30FDF74FFBE5214DF272
:103EE0000F30FDF74AFB01214DF21030FDF745FB85
:103EF00013214DF21130FDF740FB01214DF212303C
:103F0000FDF73BFB54214DF21330FDF736FB012149
:103F10004DF21430FDF731FB82214DF21530FDF7E3
:103F20002CFB01214DF21630FDF727FBCA214DF283
:103F30001730FDF722FB02214DF21830FDF71DFB73
:103F400000214DF21930FDF718FB02214DF21A3015
:103F5000FDF713FB01214DF21B30FDF70EFB022193
:103F60004DF21C30FDF709FB34214DF21D30FDF7F9
:103F700004FB02214DF21E30FDF7FFFA67214DF2DE
:103F80001F30FDF7FAFA02214DF22030FDF7F5FA65
:103F900084214DF22130FDF7F0FA02214DF222305A
:103FA000FDF7EBFAA4214DF22330FDF7E6FA0221EA
:103FB0004DF22430FDF7E1FAB7214DF22530FDF73F
:103FC000DCFA02214DF22630FDF7D7FACF214DF26F
:103FD0002730FDF7D2FA02214DF22830FDF7CDFA55
:103FE000DE214DF22930FDF7C8FA02214DF22A30C8
:103FF000FDF7C3FAF2214DF22B30FDF7BEFA022194
:104000004DF22C30FDF7B9FAFE214DF22D30FDF7BF
:10401000B4FA03214DF22E30FDF7AFFA10214DF224
:104020002F30FDF7AAFA03214DF23030FDF7A5FA43
:1040300033214DF23130FDF7A0FA03214DF2323039
:10404000FDF79BFA6D214DF23330FDF796FA002112
:104050004FF45440FDF791FA33214DF20140FDF742
:104060008CFA00214DF20240FDF787FA34214DF21F
:104070000340FDF782FA00214DF20440FDF77DFA7E
:104080003A214DF20540FDF778FA00214DF2064045
:10409000FDF773FA4A214DF20740FDF76EFA002151
:1040A0004DF20840FDF769FA5C214DF20940FDF739
:1040B00064FA00214DF20A40FDF75FFA81214DF2CA
:1040C0000B40FDF75AFA00214DF20C40FDF755FA6E
:1040D000A6214DF20D40FDF750FA00214DF20E40A1
:1040E000FDF74BFAE5214DF20F40FDF746FA0121AD
:1040F0004DF21040FDF741FA13214DF21140FDF74A
:104100003CFA01214DF21240FDF737FA54214DF2ED
:104110001340FDF732FA01214DF21440FDF72DFA5C
:1041200082214DF21540FDF728FA01214DF216408B
:10413000FDF723FACA214DF21740FDF71EFA0221BE
:104140004DF21840FDF719FA00214DF21940FDF724
:1041500014FA02214DF21A40FDF70FFA01214DF237
:104160001B40FDF70AFA00E004E302214DF21C4077
:10417000FDF703FA34214DF21D40FDF7FEF902214F
:104180004DF21E40FDF7F9F967214DF21F40FDF792
:10419000F4F902214DF22040FDF7EFF984214DF2B0
:1041A0002140FDF7EAF902214DF22240FDF7E5F941
:1041B000A4214DF22340FDF7E0F902214DF2244005
:1041C000FDF7DBF9B7214DF22540FDF7D6F90221C5
:1041D0004DF22640FDF7D1F9CF214DF22740FDF7F2
:1041E000CCF902214DF22840FDF7C7F9DE214DF24E
:1041F0002940FDF7C2F902214DF22A40FDF7BDF931
:10420000F2214DF22B40FDF7B8F902214DF22C407E
:10421000FDF7B3F9FE214DF22D40FDF7AEF9032174
:104220004DF22E40FDF7A9F910214DF22F40FDF778
:10423000A4F903214DF23040FDF79FF933214DF2EF
:104240003140FDF79AF903214DF23240FDF795F91F
:104250006D214DF23340FDF790F900214FF45540A8
:10426000FDF78BF933214DF20150FDF786F900215E
:104270004DF20250FDF781F934214DF20350FDF764
:104280007CF900214DF20450FDF777F93A214DF207
:104290000550FDF772F900214DF20650FDF76DF95A
:1042A0004A214DF20750FDF768F900214DF2085000
:1042B000FDF763F95C214DF20950FDF75EF900212D
:1042C0004DF20A50FDF759F981214DF20B50FDF7DF
:1042D00054F900214DF20C50FDF74FF9A6214DF293
:1042E0000D50FDF74AF900214DF20E50FDF745F94A
:1042F000E5214DF20F50FDF740F901214DF210502C
:10430000FDF73BF913214DF21150FDF736F901216C
:104310004DF21250FDF731F954214DF21350FDF7D3
:104320002CF901214DF21450FDF727F982214DF2AD
:104330001550FDF722F901214DF21650FDF71DF938
:10434000CA214DF21750FDF718F902214DF218500D
:10435000FDF713F900214DF21950FDF70EF9022176
:104360004DF21A50FDF709F901214DF21B50FDF7EE
:1043700004F902214DF21C50FDF7FFF834214DF2F3
:104380001D50FDF7FAF802214DF21E50FDF7F5F829
:1043900067214DF21F50FDF7F0F802214DF2205039
:1043A000FDF7EBF884214DF22150FDF7E6F80221EC
:1043B0004DF22250FDF7E1F8A4214DF22350FDF714
:1043C000DCF802214DF22450FDF7D7F8B7214DF269
:1043D0002550FDF7D2F802214DF22650FDF7CDF819
:1043E000CF214DF22750FDF7C8F802214DF2285099
:1043F000FDF7C3F8DE214DF22950FDF7BEF802218A
:104400004DF22A50FDF7B9F8F2214DF22B50FDF78D
:10441000B4F802214DF22C50FDF7AFF8FE214DF219
:104420002D50FDF7AAF803214DF22E50FDF7A5F807
:1044300010214DF22F50FDF7A0F803214DF230501E
:10444000FDF79BF833214DF23150FDF796F803212B
:104450004DF23250FDF791F86D214DF23350FDF7DA
:104460008CF800214FF45640FDF787F833214DF2C8
:104470000160FDF782F800214DF20260FDF77DF842
:1044800034214DF20360FDF778F800214DF204600D
:10449000FDF773F83A214DF20560FDF76EF8002143
:1044A0004DF20660FDF769F84A214DF20760FDF70D
:1044B00064F800214DF20860FDF75FF85C214DF2D1
:1044C0000960FDF75AF800214DF20A60FDF755F832
:1044D00081214DF20B60FDF750F800214DF20C6088
:1044E000FDF74BF8A6214DF20D60FDF746F80021CF
:1044F0004DF20E60FDF741F8E5214DF20F60FDF73A
:104500003CF801214DF21060FDF737F813214DF210
:104510001160FDF732F801214DF21260FDF72DF820
:1045200054214DF21360FDF728F801214DF214607B
:10453000FDF723F882214DF21560FDF71EF80121E9
:104540004DF21660FDF719F8CA214DF21760FDF71C
:1045500014F802214DF21860FDF70FF800214DF21A
:104560001960FDF70AF802214DF21A60FDF705F80F
:1045700001214DF21B60FDF700F802214DF21C6095
:10458000FCF7FBFF34214DF21D60FCF7F6FF022122
:104590004DF21E60FCF7F1FF67214DF21F60FCF742
:1045A000ECFF02214DF22060FCF7E7FF84214DF281
:1045B0002160FCF7E2FF02214DF22260FCF7DDFFF3
:1045C000A4214DF22360FCF7D8FF02214DF22460B4
:1045D000FCF7D3FFB7214DF22560FCF7CEFF022197
:1045E0004DF22660FCF7C9FFCF214DF22760FCF7A2
:1045F000C4FF02214DF22860FCF7BFFFDE214DF21F
:104600002960FCF7BAFF02214DF22A60FCF7B5FFE2
:10461000F2214DF22B60FCF7B0FF02214DF22C602D
:10462000FCF7ABFFFE214DF22D60FCF7A6FF032146
:104630004DF22E60FCF7A1FF10214DF22F60FCF728
:104640009CFF03214DF23060FCF797FF33214DF2C0
:104650003160FCF792FF03214DF23260FCF78DFFD1
:104660006D214DF23360FCF788FF55214FF4704007
:10467000FCF783FFAA214FF20100FCF77EFF5221D5
:104680004FF20200FCF779FF08214FF20300FCF71C
:1046900074FF00214FF20400FCF76FFFCC214FF4B0
:1046A0003140FCF76AFF00214BF20110FCF765FF77
:1046B00005214FF43640FCF760FF70214FF437407E
:1046C000FCF75BFF70214BF20170FCF756FF0121F4
:1046D0004FF43840FCF751FF03214BF60100FCF783
:1046E0004CFF03214BF60200FCF747FF03214BF67A
:1046F0000300FCF742FF02214FF43C40FCF73DFF72
:1047000000214BF60140FCF738FF00214BF6024038
:10471000FCF733FFD0214FF44940FCF72EFF022174
:104720004CF60110FCF729FF50214CF60210FCF763
:1047300024FF50214CF60310FCF71FFF50214CF6CC
:104740000410FCF71AFF00214FF45450FCF715FF3A
:1047500055214FF46850FCF710FF4FF48850FCF7D8
:10476000FDFE782003F0C7FE4FF42450FCF7F6FE60
:1047700001F05BB9FE48808849F2253188427DD13D
:1047800047F6F001E520FCF7F8FE4FF480710120B8
:10479000FCF7F3FE4FF4E0610220FCF7EEFE41F27D
:1047A00030010320FCF7E9FE00210420FCF7E5FEC0
:1047B00040F202210820FCF7E0FE00210920FCF76E
:1047C000DCFE00210A20FCF7D8FE00210C20FCF7BB
:1047D000D4FE00210D20FCF7D0FE00210F20FCF7B5
:1047E000CCFE00211020FCF7C8FE07211120FCF7A9
:1047F000C4FE00211220FCF7C0FE00211320FCF7AC
:10480000BCFE00210720FCF7B8FE41F290611020A9
:10481000FCF7B3FE40F227211120FCF7AEFE9D21EC
:104820001220FCF7AAFE4FF4C8511320FCF7A5FE96
:1048300025212920FCF7A1FE0D212B20FCF79DFE50
:1048400007213020FCF799FE40F203313120FCF7BC
:1048500094FE03213220FCF790FE40F20621352021
:10486000FCF78BFE08213620FCF787FE40F206415C
:104870003720FCF782FE4FF4417100E058E0382009
:10488000FCF77BFE07213920FCF777FE40F202613E
:104890003C20FCF772FE08213D20FCF76EFE002153
:1048A0005020FCF76AFEEF215120FCF766FE002144
:1048B0005220FCF762FE40F23F115320FCF75DFEF0
:1048C0004FF427416020FCF758FE01216120FCF7DE
:1048D00054FE00216A20FCF750FE00218020FCF7E6
:1048E0004CFE00218120FCF748FE00218220FCF7CD
:1048F00044FE00218320FCF740FE00218420FCF7C9
:104900003CFE00218520FCF738FE10219020FCF7AA
:1049100034FE4FF4C0619220FCF72FFE40F23311B9
:104920000720FCF72AFE22210020FCF726FE1FE7C5
:104930008F48808849F2283188427DD141F28F0129
:10494000EC20FCF71AFE41F23421EF20FCF715FEB3
:104950004FF480710120FCF710FE4FF4E06102205B
:10496000FCF70BFE41F230010320FCF706FE0021AC
:104970000420FCF702FE40F202210820FCF7FDFDB6
:1049800000210920FCF7F9FD00210A20FCF7F5FDC4
:1049900001210C20FCF7F1FD00210D20FCF7EDFDBD
:1049A00000210F20FCF7E9FD00211020FCF7E5FDB8
:1049B00007211120FCF7E1FD00211220FCF7DDFDAD
:1049C00000211320FCF7D9FD01210720FCF7D5FDBC
:1049D000322003F0B4FD41F290411020FCF7CDFDF0
:1049E00040F227211120FCF7C8FD322003F0A7FD7B
:1049F0008A211220FCF7C1FD322003F0A0FD4FF404
:104A0000D0511320FCF7B9FD06212920FCF7B5FD94
:104A10000D212B20FCF7B1FD322003F090FD002189
:104A20002020FCF7AAFD00212120FCF7A6FD322062
:104A300003F085FD002100E075E03020FCF79DFDCE
:104A400040F204613120FCF798FD40F2053132203C
:104A5000FCF793FD00213520FCF78FFD40F609415E
:104A60003620FCF78AFD4FF401713720FCF785FDF5
:104A700040F201313820FCF780FD40F20771392007
:104A8000FCF77BFD00213C20FCF777FD40F60A2176
:104A90003D20FCF772FD322003F051FD0021502033
:104AA000FCF76BFDEF215120FCF767FD0021522040
:104AB000FCF763FD40F23F115320FCF75EFD4FF41D
:104AC00027416020FCF759FD01216120FCF755FDCD
:104AD00000216A20FCF751FD00218020FCF74DFDEC
:104AE00000218120FCF749FD00218220FCF745FDD3
:104AF00000218320FCF741FD00218420FCF73DFDCF
:104B000000218520FCF739FD10219020FCF735FDB0
:104B10004FF4C0619220FCF730FD40F233110720C2
:104B2000FCF72BFD24E61248808849F220318842A8
:104B30007ED100210846FCF720FD4FF48071012052
:104B4000FCF71BFD4FF4E0610220FCF716FD41F27B
:104B500030010320FCF711FD00210420FCF70DFDBE
:104B600040F202210820FCF708FD0021092001E0A5
:104B70000A0E0020FCF701FD00210A20FCF7FDFCD5
:104B800001210C20FCF7F9FC00210D20FCF7F5FCBD
:104B900000210F20FCF7F1FC322003F0D0FC40F2A2
:104BA00001110720FCF7E9FC322003F0C8FC4FF4A8
:104BB00086511020FCF7E1FC07211120FCF7DDFCF9
:104BC0004FF488711220FCF7D8FC4FF430611320A9
:104BD000FCF7D3FC00212920FCF7CFFC44F21001A4
:104BE0002B20FCF7CAFC00215020FCF7C6FCEF216B
:104BF0005120FCF7C2FC00215220FCF7BEFC40F221
:104C00003F115320FCF7B9FC4FF41C516020FCF716
:104C1000B4FC01216120FCF7B0FC00216A20FCF704
:104C2000ACFC00218020FCF7A8FC0021812000E0E2
:104C300030E0FCF7A2FC00218220FCF79EFC002162
:104C40008320FCF79AFC00218420FCF796FC0021CD
:104C50008520FCF792FC10219020FCF78EFC0021AF
:104C60009220FCF78AFC01219320FCF786FC4FF48C
:104C700088719520FCF781FC00219720FCF77DFCD2
:104C800000219820FCF779FC40F273110720FCF713
:104C900074FC6DE5FE48808849F2313188427DD14F
:104CA00041F21401E720FCF768FC4FF48071012009
:104CB000FCF763FC4FF400710220FCF75EFC41F24C
:104CC00038010320FCF759FC40F202210820FCF7D0
:104CD00054FC00210920FCF750FC00210A20FCF7BD
:104CE0004CFC00210C20FCF748FC00210D20FCF7B7
:104CF00044FC00210F20FCF740FC00211020FCF7B1
:104D00003CFC07211120FCF738FC00211220FCF7A5
:104D100034FC00211320FCF730FCC82003F00FFC0A
:104D200041F290611020FCF728FC40F2272111206D
:104D3000FCF723FC322003F002FC0C211220FCF7CC
:104D40001CFC322003F0FBFB4FF400611320FCF746
:104D500014FC11212920FCF710FC0B212B20FCF75F
:104D60000CFC322003F0EBFB00212020FCF705FCBB
:104D700040F23F112120FCF700FC00213020FCF71D
:104D8000FCFB4FF483713120FCF7F7FB002132204C
:104D9000FCF7F3FB4FF40171352000E064E0FCF711
:104DA000ECFB41F20A613620FCF7E7FB40F20771A9
:104DB0003720FCF7E2FB4FF483713820FCF7DDFB72
:104DC00040F207713920FCF7D8FB40F202413C2049
:104DD000FCF7D3FB40F60F413D20FCF7CEFB002152
:104DE0005020FCF7CAFBEF215120FCF7C6FB002145
:104DF0005220FCF7C2FB40F23F115320FCF7BDFBF1
:104E00004FF41C516020FCF7B8FB01216120FCF736
:104E1000B4FB00216A20FCF7B0FB00218020FCF7E6
:104E2000ACFB00218120FCF7A8FB00218220FCF7CD
:104E3000A4FB00218320FCF7A0FB00218420FCF7C9
:104E40009CFB00218520FCF798FB10219020FCF7AB
:104E500094FB4FF4C0619220FCF78FFB40F23311BA
:104E60000720FCF78AFB83E48948808845F20841E3
:104E700088427DD14FF480710120FCF77EFB4FF416
:104E8000E0610220FCF779FB41F230010320FCF7DE
:104E900074FB00210420FCF770FB40F2072108207E
:104EA000FCF76BFB00210920FCF767FB00210A20BF
:104EB000FCF763FB00210C20FCF75FFB00210D20B9
:104EC000FCF75BFB00210F20FCF757FB142003F0DD
:104ED00036FB41F2B0611020FCF74FFB012111209D
:104EE000FCF74BFB01211720FCF747FB4FF49C71AB
:104EF0001220FCF742FB4FF400611320FCF73DFB4E
:104F000009212920FCF739FB09212A20FCF735FB70
:104F10000021A420FCF731FB00215020FCF72DFBE1
:104F2000EF215120FCF729FB00215220FCF725FB43
:104F300040F23F115320FCF720FB4FF41C5160203E
:104F4000FCF71BFB01216120FCF717FB00216A2005
:104F5000FCF713FB00218020FCF70FFB00218120D0
:104F6000FCF70BFB00218220FCF707FB002100E08F
:104F700024E08320FCF701FB00218420FCF7FDFAEC
:104F800000218520FCF7F9FA13219020FCF7F5FAAF
:104F900000219220FCF7F1FA03219320FCF7EDFAAF
:104FA0004FF488719520FCF7E8FA40F2731107205E
:104FB000FCF7E3FA322003F0C2FAB8E43448808800
:104FC00041F2055188427DD100210720FCF7D5FA36
:104FD000322003F0B4FA4FF48E711220FCF7CDFAB0
:104FE0000121A420FCF7C9FA0F210820FCF7C5FA1B
:104FF00008210A20FCF7C1FA08210D20FCF7BDFAB0
:1050000040F207713020FCF7B8FA07213120FCF795
:10501000B4FA40F203613220FCF7AFFA4FF4E061DA
:105020003320FCF7AAFA40F202213420FCF7A5FA5B
:1050300002213520FCF7A1FA41F60F713620FCF76A
:105040009CFA40F207713720FCF797FA00213820CC
:10505000FCF793FA00213920FCF78FFA40F2077130
:105060003A20FCF78AFA00213B20FCF786FA072158
:105070003C20FCF782FA00213D20FCF77EFA32202A
:1050800003F05DFA01210720FCF777FA012101E026
:105090000A0E00201720FCF770FA322003F04FFAB6
:1050A0004FF4BD511020FCF768FA40F2172111208F
:1050B000FCF763FA4FF48F711220FCF75EFA4FF49D
:1050C000706100E098E01320FCF757FA00212A20D5
:1050D000FCF753FA0A212920FCF74FFA4FF49F718D
:1050E0001220FCF74AFA00215020FCF746FAEF2183
:1050F0005120FCF742FA00215220FCF73EFA40F220
:105100003F115320FCF739FA4FF41C516020FCF793
:1051100034FA01216120FCF730FA00216A20FCF703
:105120002CFA00218020FCF728FA00218120FCF7CE
:1051300024FA00218220FCF720FA00218320FCF7CA
:105140001CFA00218420FCF718FA00218520FCF7C6
:1051500014FA13219020FCF710FA4FF440719220BA
:10516000FCF70BFA05219320FCF707FA00219520A4
:10517000FCF703FA00219720FCF7FFF900219820A3
:10518000FCF7FBF94FF480710120FCF7F6F94FF4BE
:10519000E0610220FCF7F1F941F238010320FCF74D
:1051A000ECF900210420FCF7E8F900210C20FCF7C1
:1051B000E4F900210F20FCF7E0F900212020FCF7A2
:1051C000DCF900212120FCF7D8F921210720FCF788
:1051D000D4F9142003F0B3F961210720FCF7CDF9CD
:1051E000142003F0ACF940F273110720FCF7C5F965
:1051F000142003F0A4F995E4FE4880884BF2055191
:1052000088427CD100210846FCF7B7F90021084606
:10521000FCF7B3F900210846FCF7AFF90021084676
:10522000FCF7ABF90121A420FCF7A7F9142003F047
:1052300086F94FF41C516020FCF79FF940F20221DF
:105240000820FCF79AF94FF405713020FCF795F926
:1052500043F215713120FCF790F940F204613220DD
:10526000FCF78BF940F616613320FCF786F942F221
:1052700011213420FCF781F94FF4A8513520FCF7B7
:105280007CF948F207513620FCF777F941F20741E3
:105290003720FCF772F941F203413820FCF76DF931
:1052A00020213920FCF769F91A219020FCF765F9D3
:1052B00000211020FCF761F907211120FCF75DF9AE
:1052C00000211220FCF759F900211320FCF755F9B1
:1052D000142003F034F94FF4E6611020FCF74DF987
:1052E00040F237111120FCF748F9142003F027F998
:1052F0004FF4DC711220FCF740F9142000E085E047
:1053000003F01DF94FF470611320FCF736F980218A
:105310002A20FCF732F948212920FCF72EF9142025
:1053200003F00DF94FF480710120FCF726F94FF4DA
:10533000E0610220FCF721F941F238010320FCF77B
:105340001CF940F202210820FCF717F900210A207D
:10535000FCF713F900210C20FCF70FF900210D20B8
:10536000FCF70BF930210E20FCF707F90021502043
:10537000FCF703F9EF215120FCF7FFF80021522040
:10538000FCF7FBF840F23F115320FCF7F6F84FF41E
:105390001C516020FCF7F1F801216120FCF7EDF8C9
:1053A00000216A20FCF7E9F811219020FCF7E5F8CC
:1053B0004FF4C0619220FCF7E0F840F202419320E4
:1053C000FCF7DBF802219420FCF7D7F8142003F057
:1053D000B6F801210720FCF7D0F8142003F0AFF84D
:1053E00061210720FCF7C9F840F273110720FCF790
:1053F000C4F800212020FCF7C0F800212120FCF790
:10540000BCF822210020FCF7B8F80EE37948808828
:105410004CF2055188427CD100210846FCF7ADF8DA
:1054200000210846FCF7A9F8142003F088F80021B1
:105430000846FCF7A2F800210846FCF79EF8002178
:105440000846FCF79AF800210846FCF796F8012177
:10545000A420FCF792F8142003F071F84FF41C51CB
:105460006020FCF78AF840F606010820FCF785F872
:1054700040F203713020FCF780F801213120FCF765
:105480007CF804213220FCF778F84FF48171332046
:10549000FCF773F84FF440713420FCF76EF840F2DB
:1054A00003113520FCF769F81F213620FCF765F859
:1054B00040F203713720FCF760F801213820FCF737
:1054C0005CF804213920FCF758F815219020FCF7EE
:1054D00054F84FF482611020FCF74FF840F2472156
:1054E0001120FCF74AF84FF4DE711220FCF745F862
:1054F0004FF460611320FCF740F8782003F01FF8A8
:105500004FF480710120FCF738F84FF4007102204D
:1055100000E052E0FCF731F841F230010320FCF7E3
:105520002CF808210A20FCF728F800210C20FCF7B1
:1055300024F820210E20FCF720F800210F20FCF792
:105540001CF800212020FCF718F800212120FCF78E
:1055500014F83D212A20FCF710F8142002F0EFFF88
:105560002D212920FCF709F800215020FCF705F82F
:105570004DF2EF015120FCF700F800215220FBF71B
:10558000FCFF40F23F115320FBF7F7FF00216120A1
:10559000FBF7F3FF00216A20FBF7EFFF4FF44071A8
:1055A0009220FBF7EAFF05219320FBF7E6FF4FF47B
:1055B00080710720FBF7E1FF37E20E48808844F254
:1055C000315188427ED101210020FBF7D6FF0A200D
:1055D00002F0B5FF41F228611020FBF7CEFF0E214B
:1055E0001220FBF7CAFF40F639211320FBF7C5FF55
:1055F0000A2001E00A0E002002F0A1FF4021112044
:10560000FBF7BBFF50211520FBF7B7FF0A2002F084
:1056100096FF1E211220FBF7B0FF0A2002F08FFF39
:105620004FF4B1511020FBF7A8FF42F639211320A7
:10563000FBF7A3FF0A2002F082FF4FF480710120E4
:10564000FBF79BFF4FF440710220FBF796FF41F2FE
:1056500038010320FBF791FF40F202210820FBF7FD
:105660008CFF08210A20FBF788FF00213020FBF780
:1056700084FF40F202413120FBF77FFF4FF483713A
:105680003220FBF77AFF40F203513320FBF775FF1E
:105690004FF482713420FBF770FF40F20131352066
:1056A000FBF76BFF40F207713620FBF766FF40F215
:1056B00005313720FBF761FF4FF402713820FBF70B
:1056C0005CFF00E03EE040F60B713920FBF755FF30
:1056D00002214120FBF751FF4FF41C516020FBF7E2
:1056E0004CFF01216120FBF748FF4FF4047190202B
:1056F000FBF743FF4FF485719220FBF73EFF042137
:105700009320FBF73AFF4FF48071A020FBF735FFA1
:1057100001210720FBF731FF21210720FBF72DFF97
:1057200023210720FBF729FF33210720FBF725FF63
:1057300040F233110720FBF720FF0021A020FBF7E8
:105740001CFF72E1FA48808844F2355188427CD1CE
:1057500030211520FBF711FF10219A20FBF70DFFD8
:1057600020211120FBF709FF43F228411020FBF70D
:1057700004FF02211220FBF700FF41F23801132041
:10578000FBF7FBFE282002F0DAFE12210846FBF7A9
:10579000F4FE282002F0D3FE43F220411020FBF754
:1057A000ECFE43F238011320FBF7E7FE462002F03F
:1057B000C6FE00213020FBF7E0FE40F2024131201E
:1057C000FBF7DBFE40F207313220FBF7D6FE4FF449
:1057D00041713320FBF7D1FE04213420FBF7CDFECD
:1057E00040F201413520FBF7C8FE40F20771362038
:1057F000FBF7C3FE40F205313720FBF7BEFE4FF446
:10580000C2613820FBF7B9FE4FF4C2613920FBF7C3
:10581000B4FE4FF480710120FBF7AFFE4FF44071EE
:105820000220FBF7AAFE41F230010320FBF7A5FEA0
:1058300040F608010820FBF7A0FE08210A20FBF72C
:105840009CFE4FF41C51602000E033E0FBF795FE16
:1058500001216120FBF791FE4FF49F719020FBF72F
:105860008CFE4FF480719220FBF787FE4FF480711D
:105870009320FBF782FE4FF44051A020FBF77DFE02
:105880001021A320FBF779FE01210720FBF775FE0D
:1058900021210720FBF771FE23210720FBF76DFE76
:1058A00033210720FBF769FE40F233110720FBF795
:1058B00064FEBAE09E48808841F663118842F8D1C0
:1058C000E220FBF74BFE2320FBF74BFE0220FBF709
:1058D00048FE0420FBF745FE642002F00CFEE020A9
:1058E000FBF73CFE0120FBF73CFE0A2002F027FEFE
:1058F000E020FBF733FE0320FBF733FE0C2002F021
:105900001EFE0120FBF72AFE0A2002F018FEE62008
:10591000FBF724FE0320FBF724FEFF20FBF721FE0C
:10592000FF20FBF71EFEB020FBF718FE2020FBF740
:1059300018FE0020FBF715FE0320FBF712FE40F2D5
:105940001F30FBF70EFE0120FBF70BFE40F2DF10CD
:10595000FBF707FE0020FBF704FEB420FBF7FEFD7B
:105960000420FBF7FEFD40F21F40FBF7FAFD00208C
:10597000FBF7F7FDD220FBF7F4FD0020FBF7F1FD6C
:105980000020FBF7EEFD0020FBF7EBFD0020FBF70E
:10599000E8FDB620FBF7E2FD0220FBF7E2FD4FF445
:1059A0000370FBF7DEFD0020FBF7DBFD2220FBF799
:1059B000D8FD0920FBF7D5FD0020FBF7D2FD002024
:1059C000FBF7CFFDF020FBF7C9FD0320FBF7C9FD76
:1059D0002920FBF7C3FDD020FBF7C0FD0020FBF71B
:1059E000C0FDBE20FBF7BAFD0520FBF7BAFDFE2087
:1059F000FBF7B7FD0120FBF7B4FDFF20FBF7B1FD7E
:105A00000020FBF7AEFDB820FBF7A8FD0F20FBF749
:105A1000A8FD0120FBF7A5FDBA20FBF79FFD0120A3
:105A2000FBF79FFD6420FCF7FCF90020FCF721FA4E
:105A30000120404908604FF6FF70FCF706FC1FB0DC
:105A400000BD2DE9FC4F05460E4617469846DDF889
:105A50002C90002001903648808846F60401884248
:105A600029D133488079012825D1AB4635463048C5
:105A70000088C01B401E86B247462D480088A0EB18
:105A80000B00401E1FFA80F80020294988712A2047
:105A900048812B20888143463A4631462846CDF836
:105AA0000090FFF7CEFF0120214988712B2048810B
:105AB0002A2088811CE0781B401C80B2019034466B
:105AC00014E021462846FBF785FDFBF766FD4FF005
:105AD000000A06E01848A0F800900AF101001FFA39
